:100000000C94BA060C94D7060C94F2060C94D706FE
:100010000C94D7060C94D7060C94E1290C94D706BF
:100020000C94D7060C94D7060C94D7060C94D706DC
:100030000C94D7060C94D7060C94542A0C94D7062B
:100040000C94D7060C94D7060C94D7060C94D706BC
:100050000C94D7060C94D7060C94D7060C94D706AC
:100060000C94D7060C94D7064F774F005577550060
:1000700049706E74207866646A212058206B6A7417
:10008000206478706320786677206C697366206AD4
:100090006F616D2067616965206F79716D2E0062F7
:1000A000675B2061675B2061685B2061635B206246
:1000B000605B2060675B20605B2060615B20626446
:1000C0005B2063645B2062665B20705B20615F5B2A
:1000D0002061605B2061665B2062615B20615B2068
:1000E000645B2061655B2063665B20715B20625FFF
:1000F0005B20635B2060645B20645F5B2064605B0B
:100100002060655B2063605B2063675B2061645BEC
:100110002062625B20625B2060625B20605F5B202C
:1001200063625B20635F5B2063655B2063635B20CE
:1001300063615B2062685B2064615B2060635B20BD
:1001400062655B2061615B20685B20665B206263A7
:100150005B2063685B2061625B2060665B20675B9D
:100160002060685B20655B20606000727472797249
:1001700073776978656320646A7A62207A6D206B90
:100180006970652C20736C79206771627274756276
:100190006A7661206F6D62207A656520666C2068E2
:1001A0006E636B206267717162612E004D4551472D
:1001B0004F3333504D51514849324C4E4D555147B4
:1001C00053345A414D56515847364A414F35555888
:1001D000493242414F5255474B4944534E4654577A
:1001E000513542414D5A5A47535A4C4F4D513D3D5E
:1001F0003D3D3D3D005E42435920475F595E2042F0
:100200004B5C4F20484F4F44204B20424B584E20D0
:1002100045444F205E45205945465C4F2C20425FA7
:10022000423F004E6F742074686973206B21205424
:100230006865206F74686572206F6E6521010431F6
:100240003030307C204A757374206B696464696E49
:10025000672E203A500104313030307C2067206115
:1002600073206C656720727A766720716E6F206EDE
:1002700020656273202E6F206173206C6567202CCF
:10028000727A76672071626274206E2065627300F4
:100290004D79206661766F7269746520636F6E2098
:1002A000697320426161616161434F4E01043130E5
:1002B00030307C206765742069743F010431303030
:1002C000307C2030313031303030312030303030FF
:1002D0003130313120303031303130303020313038
:1002E000313131303030203030303030303130202A
:1002F0003030313030303130203031313030313009
:100300003020313130313031303120313031313005
:1003100031313020303131303031303020303131F6
:100320003031303131203030006375726C202D73E4
:10033000202D4C2068747470733A2F2F6269742ECC
:100340006C792F337A76454C4E7A207C206261732B
:10035000680073403F5645203A383F4043362048B6
:1003600039324544203D363745204037204441321C
:1003700034365D5D5D00290014001A000800150088
:1003800017001C0018000C00120013002A002B009C
:1003900004001600070009000A000B000D000E0003
:1003A0000F0000002800E1001D001B0006001900DE
:1003B000050011001000E400000052004152E0006E
:1003C000E300225200002C0000002C00000021520B
:1003D000500051004F0029002D002E00080015008C
:1003E00017001C0018002F00300031002A002B00DD
:1003F00004001600070009000A000B000D0033007E
:10040000340000002800E1001D001B000600190058
:10041000360037003800E4000000A9004252E00036
:10042000E300E20000002C0000002C0000000100AE
:10043000AC00AA00AB0035001E001F002000210008
:100440002200230024002500260027004C002B005A
:1004500004001600070009000A000B000D000E0042
:100460000F0000002800E1001D001B00060019001D
:10047000050011001000E400000052004352E000AB
:10048000E300E2000000235200002C000000E60020
:10049000500051004F00290014002E7808002D78DC
:1004A00017001C002A782978227821784C004B52BA
:1004B00004002B78070009000A000B002678257835
:1004C000207800002800E1001D001B000600190034
:1004D0002C7811001000E400000027784052E00062
:1004E000E300E20000002C0000002C00000021527C
:1004F00024782878237840521A0006000E001B004A
:100500001D00080004001200180019002A003252D1
:100510000A001C000D000F00100011001300140051
:10052000150000002800E100090007000C0005008C
:100530000B00170016002F520000520040522F529D
:100540003052E20000002E5200002C000000315218
:10055000500051004F0040521B0007000F001C00CC
:10056000040009000500130019001A002A00325285
:100570000B001D000E0010001100120014001500E9
:10058000160000002800E1000A0008000D00060027
:100590000C00180017002F520000520040522F523A
:1005A0003052E20000002E5200002C0000003152B8
:1005B000500051004F0040521C00080010001D0068
:1005C00005000A00060014001A001B002A0032521F
:1005D0000C0004000F00110012001300150016009B
:1005E000170000002800E1000B0009000E000700C2
:1005F0000D00190018002F520000520040522F52D7
:100600003052E20000002E5200002C000000315257
:10061000500051004F0040521D000900110004001D
:1006200006000B00070015001B001C002A003252B8
:100630000D00050010001200130014001600170032
:10064000180000002800E1000C000A000F0008005C
:100650000E001A0019002F520000520040522F5273
:100660003052E20000002E5200002C0000003152F7
:10067000500051004F00405204000A0012000500D3
:1006800007000C00080016001C001D002A00325252
:100690000E000600110013001400150017001800CA
:1006A000190000002800E1000D000B0010000900F7
:1006B0000F001B001A002F520000520040522F5210
:1006C0003052E20000002E5200002C000000315297
:1006D000500051004F00405205000B00130006006F
:1006E00008000D00090017001D0004002A00325206
:1006F0000F00070012001400150016001800190062
:100700001A0000002800E1000E000C0011000A0091
:1007100010001C001B002F520000520040522F52AC
:100720003052E20000002E5200002C000000315236
:10073000500051004F00405206000C00140007000A
:1007400009000E000A001800040005002A003252B9
:1007500010000800130015001600170019001A00F9
:100760001B0000002800E1000F000D0012000B002C
:1007700011001D001C002F520000520040522F5249
:100780003052E20000002E5200002C0000003152D6
:10079000500051004F00405207000D0015000800A6
:1007A0000A000F000B001900050006002A00325253
:1007B0001100090014001600170018001A001B0091
:1007C0001C0000002800E10010000E0013000C00C7
:1007D000120004001D002F520000520040522F5200
:1007E0003052E20000002E5200002C000000315276
:1007F000500051004F00405205000B00230006003E
:1008000008000D00090033021F0204002A003252C2
:100810001F000700220024002500260033003602B6
:100820002E0000002800E1000E000C0021000A004C
:100830002000380237022F520000520040522F523F
:100840003052E20000002E5200002C000000315215
:10085000500051004F0040522F00300012021B0286
:10086000230216022D02060208021D022A0032523D
:100870000E021C0211020F02100205021F020402E6
:10088000090200002800E100130215020C023100E9
:100890000B0207020A022F520000520040522F5250
:1008A0003052E20000002E5200002C0000003152B5
:1008B000500051004F004052070004771500080017
:1008C0000A000F00097719000A7706002A002B009A
:1008D0001100090014001600170018001A00037711
:1008E0001C0000002800E10010000E0013000C00A6
:1008F000120004001D003600000052004052E000CB
:10090000E300E20000002C0000002C000000215257
:10091000500051004F00405207000D0015000177B4
:100920000A000F00097719000A7706002A002B0039
:100930001100090000771600170018001A001B00AC
:100940001C0000002800E10010000E0013000C0045
:10095000077704001D003600000052004052E000FE
:10096000E300E20000002C0000002C0000002152F7
:10097000500051004F00405207000D0015000800C4
:100980000A000F00097719000A7706002A002B00D9
:100990001100090014001600170018001A001B00AF
:1009A0001C0000002800E10002770E0008770C0010
:1009B000120004001D003600000052004052E0000A
:1009C000E300E20000002C0000002C000000215297
:1009D000500051004F00405207000D001500080064
:1009E00005770F00097719000A7706002A002B0007
:1009F0001100090014001600170018001A001B004F
:100A00001C0000002800E10010000E0013000C0084
:100A1000067704001D003600000052004052E0003E
:100A2000E300E20000002C0000002C000000215236
:100A3000500051004F0040524452455246524752D6
:100A4000485249524A524B524C524D522A002B00A6
:100A50001100090014001600170018001A001B00EE
:100A60001C0000002800E10010000E0013000C0024
:100A7000120004001D002F52000052004052E000FE
:100A8000E300E20000002C0000002C0000002152D6
:100A9000500051004F00000101010101010101015D
:100AA000020202020202020202030303030303031F
:100AB00003040404040404040505050505060606EC
:100AC0000606070707070708080808090909090AA9
:100AD0000A0A0B0B0B0C0C0C0D0D0D0E0E0E0F0F4E
:100AE0000F101011111112121313141415151616DC
:100AF0001717181819191A1A1B1B1C1D1D1E1E1F4B
:100B00002020212222232424252626272829292A99
:100B10002B2C2D2D2E2F30313232333435363738C1
:100B2000393A3B3C3D3E3F404142434445464748BD
:100B3000494A4C4D4E4F50515354555658595A5B93
:100B40005D5E5F616264656668696B6C6D6F707233
:100B5000737577787A7B7D7E8082838587888A8C9F
:100B60008E8F91939596989A9C9EA0A2A3A5A7A9D3
:100B7000ABADAFB1B3B5B7BABCBEC0C2C4C6C9CBCA
:100B8000CDCFD1D4D6D8DBDDDFE2E4E7E9EBEEF080
:100B9000F3F5F8FAFDFF00000000000000002A2B2A
:100BA000280000000000000000000000000000001D
:100BB0000029000000002C1E342021222434262786
:100BC000252E362D3738271E1F20212223242526A7
:100BD0003333362E37381F0405060708090A0B0C75
:100BE0000D0E0F101112131415161718191A1B1CBD
:100BF0001D2F3130232D350405060708090A0B0C7B
:100C00000D0E0F101112131415161718191A1B1C9C
:100C10001D2F3130354C00000000000000000000A6
:100C200000000000000000000000000000000000C4
:100C3000000000000000000000007E0F00D4FFFF55
:100C4000FFC70000007809023B00020100A0FA097A
:100C500004000001030101000921010100012244F7
:100C600000070581030800010904010001030000D9
:100C700000092101010001226D000705830308001E
:100C8000011201100100000008EFBEBEBA371301C7
:100C900002000114034800340043004B00420030BE
:100CA000004100520044000000140372006F007401
:100CB00000310033006C006100620073000000042A
:100CC00003090405010906A1018506050719E029A4
:100CD000E71500250195087501810205071900290E
:100CE000EF1500250195F07501810205081901290C
:100CF00005950575019102950175039103C00501E4
:100D00000980A101850319012AB700150126B70042
:100D1000950175108100C0050C0901A10185041918
:100D2000012AA002150126A002950175108100C0BC
:100D300005010906A101050719E029E715002501AC
:100D40009508750181029501750881030507190051
:100D500029FF150026FF0095067508810005081972
:100D6000012905150025019505750191029501756B
:100D7000039103C011241FBECFEFD8E0DEBFCDBF6B
:100D800012E0A0E0B1E0ECE9FEE502C005900D92B2
:100D9000A436B107D9F724E0A4E6B2E001C01D9261
:100DA000A03FB207E1F70E942C180C94E32E0C949C
:100DB0000000A82FB92F80E090E041E050EA609554
:100DC00030E009C02D9182279795879510F08427F0
:100DD0009527305EC8F36F5FA8F30895EADF8D931F
:100DE0009D930895CF93CFB7CF93DF93C3954B9B3C
:100DF000E9F74B9B10C04B9B0EC04B9B0CC04B9B11
:100E00000AC04B9B08C04B9B06C0C091C704C3954A
:100E1000C093C7048EC06F93C091C604DD27C25330
:100E2000DB4F2F9365E54B9B03C02F916F91E1CF73
:100E30000F931F934F9320E040E15F9309B10C7033
:100E400003FB27F93F9350E03BE039C01C7040643E
:100E50002F77012F5F5F1EC0406819B11C702F777C
:100E600052501FC0406409B12F770C70D1F15F5F01
:100E700000C023C0406219B12F771C7091F15F5FF1
:100E800000C025C00C701027515012F45D5F0000A7
:100E9000115027952C3F19B1C8F61C70012701503D
:100EA00027952C3FC8F64227499309B10C701027AB
:100EB0004F73115027952C3FA8F64695469519B1CA
:100EC0001C7079F00127015027952C3F98F66B5A3A
:100ED00060F3315009B1B0F600C012E01CBB00272E
:100EE0001CC03B503195C31BD04012E01CBB088195
:100EF000033C21F10B3411F12091C3041981110F2E
:100F00001213EDCF4A81441F093679F10D3211F0E9
:100F1000013E29F74F7009F0042F0093CC043F9154
:100F20005F914F911F910F912F916F91CCB3C1FDA4
:100F30005DCFDF91CF91CFBFCF9118952091CC0499
:100F4000222369F31091CA04112309F049C03430F7
:100F50000AF448C03093CA042093C5041091C60413
:100F60003BE0311B3093C6043DC00091CA04013000
:100F7000BCF50AE54F7049F43091CD0134FD33C022
:100F80000093CD01C0EAD4E032C0433059F0443080
:100F900091F03091AB0434FD26C00093AB04CCEA51
:100FA000D4E025C03091E40434FD1DC00093E40476
:100FB000C5EED4E01CC03091B70434FD14C00093DA
:100FC000B704C8EBD4E013C0052710E000C0000050
:100FD0000BB91AC0052710E0221F1DC010E021C068
:100FE0004AE502C032ED432FC4E1D0E032E01AB14D
:100FF0001C605B9A0BB11AB95CE020E865E320FF46
:1010000005270BB9279517951C3FF0F66695B8F79D
:10101000B1F720FF05270BB9279517951C3FD0F690
:101020002795179517FF052700001C3F0BB9B0F651
:1010300029913A9519F7037F1091CB04110FC651EE
:10104000D0400BB911F01093C30412E01CBB086030
:101050001AB1137F402F437F54E05A95F1F70BB933
:101060001AB94BB95CCF97578B30910578F4FC01D6
:10107000EB51F14DDB0115969C910C94C02D9923F9
:1010800029F060E082E593E00E94682781E00895FE
:101090009923E1F360E089E293E0F6CF9923B1F37D
:1010A00060E080E992E0F0CF992381F360E083E291
:1010B00092E0EACF992351F360E085EF91E0E4CF2D
:1010C000992321F360E08CEA91E0DECF9923F1F2DD
:1010D00060E08BE691E0D8CF9923C1F260E08FE920
:1010E00090E0D2CF992391F260E080E790E0CCCFFE
:1010F000992361F260E08CE690E0C6CF992331F24B
:1011000060E088E690E0C0CF8331B8F46430A8F4A2
:101110004C3098F450E09CE0699F400D511D112423
:10112000FA0190E3899FE00DF11D1124EE0FFF1FDE
:10113000EA58FC4F85919491089581E090E00895DC
:101140000E948408089581E008950E94A3080895EC
:1011500081E008950E943308089508950E94AD0823
:101160000895A6E0B0E0E7EBF8E00C94D52D4983B4
:101170005A839E8330916B0289819A8131111AC002
:101180003E81332399F0222389F00E94B90E182F53
:10119000682F89819A810E94950E69817A81812FB9
:1011A0000E94D6152696E3E00C94F12D0E94A70E1E
:1011B000182FF3CF0E94B90E69817A81F1CFFC011B
:1011C000262F4081518162817381848195810E94A3
:1011D000B1080895CF93DF93EC0161E00E94DF082E
:1011E000BE010E94A508DF91CF910895CF93DF93B0
:1011F000EC0160E00E94DF08BE010E94AE08DF91B2
:10120000CF91089581E008950E9402090895CF9337
:10121000C82F0E94E30C8C2F0E9404092FEF84E357
:101220009CE0215080409040E1F700C00000CF9149
:10123000089581E00E9407090E94782A089580E0BD
:101240000E9407090E948D2A08950F931F93CF9340
:10125000DF938C0161E00E94DF08EC01B8010E947D
:10126000AA08811106C080E0DF91CF911F910F91F4
:101270000895B801CE010E9434288823A1F3B80153
:10128000CE010E94E425882371F3B801CE010E94AB
:10129000BA25882341F3B801CE010E941425882382
:1012A00011F3F8018581882361F0C330FCE7DF0783
:1012B000E9F058F4C115ECE7DE07A9F0C130DC47CE
:1012C000B9F0C8010E94A808CFCFCB358CE7D8076A
:1012D000A9F0CC35ECE7DE0771F0CA35DC4789F7B9
:1012E0000E94F612EECF0E941909BDCF0E94FE1295
:1012F0000E941F09B8CF0E94EC12E3CF0E94FA129D
:10130000E0CF089581E008950895CF93DF93D82F1B
:101310000E948209C82F882319F08D2F0E9484090A
:101320008C2FDF91CF9108950895CF93C82F0E94FD
:1013300081098C2F0E948509CF910895CF930E9437
:101340007D28C82F809166028C1779F0C0936602C1
:101350000E941D2A6093670270936802809369025D
:1013600090936A028C2F0E949509CF910895ADE069
:10137000B0E0EDEBF9E00C94D62D488759876A87E9
:101380007B878C879D8791110E940E121F8286E0B9
:10139000FE013896DE01119601900D928A95E1F7D3
:1013A0008D8181110DC029813A814B815C816D81D4
:1013B0007E818F810E9458112D96E2E00C94F22DCF
:1013C000CE0101960E94EA088111EDCFF5CFFC0114
:1013D0002481213021F4808191810E94F30E0895AF
:1013E000CF93C82F882399F08CEF8C0F813A88F423
:1013F0008C2F0E940F29882329F08C2F0E94AF295F
:101400000E9490128C2F0E9498290E949012CF91D6
:10141000089580E28C0F883048F4C77081E001C0E5
:10142000880FCA95EAF70E94F111EFCFEBE5EC0FB8
:10143000E33040F4F0E0E95FFD4F808190E00E94EE
:10144000A328E5CFC85ACB3110F7EC2FF0E0EE0F10
:10145000FF1FEF52FE4F808191810E94C828D7CF95
:10146000882339F19CEF980F913A28F40E94AF2914
:101470000E949012089590E2980F983050F487706F
:1014800091E001C0990F8A95EAF7892F0E94F71120
:10149000EFCF9BE5980F933028F490E080E00E9416
:1014A000A3280895885A8B3120F490E080E00E94B0
:1014B000C82808951F93CF93DF93182FEB010E9444
:1014C000F009209739F4812F0E94300ADF91CF91E3
:1014D0001F9108958FE99FE00197F1F700C0000088
:1014E0002197EFCF70E060E0893311F460E570E0A0
:1014F0000E945A0A0895882321F00E94F1110E9447
:1015000090120895882321F00E94F7110E949012F2
:101510000895B0E0A0E0EFE8FAE00C94CF2D6C0164
:10152000D62FC72FFC011581068102950F700E94EE
:10153000E711E82E8823F9F0E12E1123E1F08C2F3A
:10154000807F803461F080E28D0F883008F18C2F2D
:10155000807E803221F4D230D8F00023C9F080910F
:10156000D50382FF15C082E00E94C0120E94E711DD
:1015700091E0E82EE926BC2EB2949FE0B922FBE070
:10158000FB15B8F1EB2DF0E0E051F14D0C94C02DBE
:10159000E12CF1CF0C2F0F70C07F11F00295007F6E
:1015A000112399F0002359F080E28D0F883010F05C
:1015B000D11107C0802F0E94F1110E9490128D2F2F
:1015C0005AC0802F0E940112F8CF8D2F0E94300A3E
:1015D000002379F080E28D0F883010F0D11104C023
:1015E000802F0E94F71103C0802F0E9407120E94D3
:1015F0009012EB2DE850FF0B349720F40E947D28C9
:101600000E949509EE2089F00E94E31180FD0DC033
:10161000F60115820E94DD110E949D0DC6010E94F7
:10162000AE0C0E94DD110E94BF0DCDB7DEB7E9E020
:101630000C94EB2D2C2F2F70F22EC07FC03219F09E
:10164000F29480EFF822DD2341F0D130D1F1112363
:1016500009F444C00023F1F0B2CF8091D50382FD9C
:1016600015C0112359F0FF2029F08F2D0E94F11190
:101670000E94901280E00E94F009BBCF80E00E949F
:10168000300AFF2009F4B5CF8F2DABCF112369F0BD
:10169000011104C08F2D0E947B0AABCF013009F0ED
:1016A000A8CF8F2D0E942512A4CF0111A2CF8F2D7C
:1016B0000E94820A8F2D0E9431128F2D0E941512D6
:1016C00098CF112321F0063008F093CFE3CF0530F7
:1016D00008F08FCF8F2D0E94820A8BCF0023D1F389
:1016E000D93349F43FEF87EE93E03150804090408A
:1016F000E1F700C000008D2F0E94300A7ACF8C2FB6
:1017000086958695837069F0813009F072CF8D2FB0
:101710009C2F9370111102C080E090E00E94C828B5
:1017200068CF8D2F9C2F9370111102C080E090E044
:101730000E94A3285ECF8C2F837009F041C0111145
:1017400058CF4D2F429546954770440F440F0D2FAB
:101750000F7010E030E020E0042E04C0000F111FD5
:10176000221F331F0A94D2F760E070E0CB01D4FF50
:101770000FC06FE070E080E090E004C0660F771F5C
:10178000881F991F4A95D2F760957095809590951E
:10179000C695C695C370602B712B822B932BC230DC
:1017A00049F058F4C13019F00E944A0D22CF0E942E
:1017B000370D1FCF0E945D0D1CCF0E94340D19CF35
:1017C0008695112311F08C2F8170882309F411CF95
:1017D0004D2F429546954770440F440F0D2F0F70C3
:1017E00010E030E020E0042E04C0000F111F221F83
:1017F000331F0A94D2F760E070E0CB01D4FF0FC032
:101800006FE070E080E090E004C0660F771F881FF3
:10181000991F4A95D2F76095709580959095C695D9
:10182000C695C370602B712B822B932BC23049F06D
:1018300058F4C13019F00E94180EDBCE0E94050E3C
:10184000D8CE0E942B0ED5CE0E94760DD2CECF7070
:10185000112329F08C2F0E949D0D8D2F1CCF8D2FD1
:101860000E94820A8C2F0E94BF0DC3CED23F41F14D
:1018700060F4D03FB9F0D13F81F0112309F446C0A4
:1018800001119DCE8C2F8F711FC0D33F01F1D43F2A
:10189000A1F78091D50382FD24C08C2F8F71112375
:1018A00011F312C0112341F0053008F0A2CE8C2FA5
:1018B0008F710E94E30D9DCE063008F09ACEF7CFCF
:1018C0008C2F8F711111CFCF0E949D0D92CE1123BD
:1018D00029F08C2F8F710E94870D8BCE0E94810D75
:1018E00088CE112349F0CF718C2F0E949D0D63E0AB
:1018F0008C2F0E94A2127DCE81E00E94C012023085
:1019000008F477CE82E00E94C01273CE002359F013
:10191000D93309F0F0CEEFEFF7EE23E0E150F040DD
:101920002040E1F7E6CE8C2F8F719DCF0F931F9350
:10193000CF93DF93EC01688179818D810E94FE0E47
:101940008C010E943E0E0E94330DB801CE010E9410
:10195000890ADF91CF911F910F910895CF93DF9363
:10196000EC018C81882399F0CE010E942509811118
:1019700011C00E94E711882351F08D81882339F02E
:101980008091D50382FF03C082E00E94C012DF91E4
:10199000CF910895CE010E94960CCE010E94F608C8
:1019A000F6CF90E080E00E94A32890E080E00E94C3
:1019B000C8280E940E120E94901208950E94C62903
:1019C0000E94D10C08950E94FE110E94DE0C089521
:1019D00092959F70963091F058F4925F9F7092307C
:1019E00058F4803F19F030F4883E30F481E00895D7
:1019F0009A5FF4CF843FD1F380E00895883EB0F33E
:101A0000813FD1F7F3CFFC012481222339F080817B
:101A100091810E94F30E0E94E80C089580E00895E1
:101A2000A6E0B0E0E6E1FDE00C94D62D2696E2E0DB
:101A30000C94F22DA7E0B0E0E0E2FDE00C94D62D8E
:101A40002796E2E00C94F22D08950E94240D08954B
:101A50000E94250D60938E0270938F0280939002F6
:101A600090939102089508950E94280D08950F9370
:101A70001F9300918E0210918F022091900230915D
:101A80009102602B712B822B932B0E94280D1F91AA
:101A90000F9108950F931F9300918E0210918F0262
:101AA000209190023091910260237123822393232D
:101AB0000E94280D1F910F9108950F931F9300917D
:101AC0008E0210918F022091900230919102602736
:101AD0007127822793270E94280D1F910F91089547
:101AE0000E94240D08950E94700D08950E94730DA8
:101AF00060938A0270938B0280938C0290938D0284
:101B0000089560E070E0CB010E94760D08950F9378
:101B10001F9341E050E060E070E08A019B0104C047
:101B2000000F111F221F331F8A95D2F7C901B80178
:101B30000E94760D1F910F9108950F931F9341E01E
:101B400050E060E070E004C0440F551F661F771F2F
:101B50008A95D2F780918A0290918B02A0918C0293
:101B6000B0918D028A019B01082B192B2A2B3B2B4C
:101B7000C901B8010E94760D1F910F9108950F932E
:101B80001F9341E050E060E070E004C0440F551F37
:101B9000661F771F8A95D2F7CB01BA0160957095C1
:101BA0008095909500918A0210918B0220918C0271
:101BB00030918D0260237123822393230E94760D3E
:101BC0001F910F9108950F931F9341E050E060E043
:101BD00070E004C0440F551F661F771F8A95D2F727
:101BE00080918A0290918B02A0918C02B0918D021B
:101BF0008A019B01082719272A273B27C901B80119
:101C00000E94760D1F910F9108950F931F930091DD
:101C10008A0210918B0220918C0230918D02602BF0
:101C2000712B822B932B0E94760D1F910F9108959B
:101C30000F931F9300918A0210918B0220918C02C6
:101C400030918D0260237123822393230E94760DAD
:101C50001F910F9108950F931F9300918A02109185
:101C60008B0220918C0230918D0260277127822790
:101C700093270E94760D1F910F9108950895262FA6
:101C8000277091E001C0990F2A95EAF723E0769535
:101C900067952A95E1F725E0269FF001279FF00D33
:101CA0001124E40FF51F50E040E0682F70E08191AF
:101CB000DF0111979B01042E02C0369527950A94E7
:101CC000E2F7217021952827292328272C934F5F9D
:101CD0005F4F4530510559F70895A82FA77023E0AD
:101CE000969587952A95E1F725E0289FF001299F91
:101CF000F00D1124E60FF71F50E040E080E0219145
:101D000030E00A2E02C0369527950A94E2F721703A
:101D10003327042E01C0220F0A94EAF7822B4F5F6B
:101D20005F4F4530510559F70895262F943070F4D0
:101D30008C3060F4682F70E08CE0989F600D711D0E
:101D400011244CE652E0822F0E943F0E0895292F65
:101D5000943068F48C3058F490E06CE672E03CE02B
:101D6000239F800D911D11240E946D0E089580E027
:101D70000895B0E0A0E0EFEBFEE00C94CF2D8C01D5
:101D8000C0908A02D0908B02E0908C02F0908D027D
:101D900080918E0290918F02A0919002B091910259
:101DA000C82AD92AEA2AFB2ACFE1D0E0BC2ED701E3
:101DB000C6010C2E04C0B695A795979587950A94F1
:101DC000D2F780FD09C0219788F7B12C8B2DCDB7B4
:101DD000DEB7E9E00C94EB2DB8018C2F0E94E215E0
:101DE000019789F3F3CFCF93DF93EC010E94B90EF3
:101DF000BE010E94E215DF91CF9108951F93CF930A
:101E0000DF93EB0190916B02992339F0CB010E9493
:101E1000F30EDF91CF911F910895882369F0CB01D4
:101E20000E94B90E182F682FCE010E94950EBE0198
:101E3000812F0E94E215EDCFCB010E94A70E182F33
:101E4000F6CF1F93CF93DF93C091920217E080915A
:101E500093028C1304C0DF91CF911F910895D0E0BD
:101E60001C9FF0011D9FF00D1124EC56FD4F2081A9
:101E70003181428153816481758186810E941A0D6E
:101E80002196C770E4CF2091CC023091CD024091D1
:101E9000CE025091CF026091D0027091D102809118
:101EA000D2020E941A0D0895CF93DF938091D2023F
:101EB000807F09F04DC08091D102882309F448C089
:101EC000E091920250919302C091CD02D091CC0248
:101ED0006091CE027091CF0247E05E17C9F18E2F5C
:101EE00090E0E49FF0011124EC56FD4F2481222361
:101EF00091F1489FF001499FF00D1124DF01AC568C
:101F0000BD4F11962C9111972C1325C02C912D1398
:101F100022C015962C91159721111DC012962D9156
:101F20003C91261B370B283C3105A8F48091D20246
:101F30008F7080618093D202E656FD4F80818F7052
:101F4000806180838CEC92E00E94AE0C0E94210F95
:101F5000DF91CF910895FC013196E770BECF482FF5
:101F6000209192029091930257E0291302C080E0E1
:101F7000089530E0529FF001539FF00D1124EC566C
:101F8000FD4F8181681306C08081481303C085819D
:101F90008111EECF2F5F3F4F2770E7CFA4E1B0E074
:101FA000E4EDFFE00C94CC2D8C0186E0F801DE011D
:101FB0001F9601900D928A95E1F7F8018481E580E2
:101FC0009CECA92E92E0B92E9091D00291111FC0E5
:101FD0008823D1F0EE20A9F0C8010E94030DF82E4D
:101FE000882379F087E0F801D50101900D928A9558
:101FF000E1F7C5010E94E7090E94540F0E94430FB8
:102000005FC0C8010E94AE0CFF24F39459C0C08089
:10201000D18082809380F090D1022091CE023091C5
:10202000CF02A401421B530BFF2009F4F9C0483C26
:10203000510508F0A7C0882309F442C09091CD0251
:102040008091D202282F207F09F05CC09D1116C01C
:102050009091CC02C91212C0E1104EC08F70806105
:102060008093D2020E94430F8CEC92E00E94AE0C4F
:102070008091D202F8018683F12C22C0E1103CC08D
:102080006D2D8C2D0E94AF0F6D2D8C2D0E94AF0FEA
:10209000E82E8111F1CFCF86D88A8F8598890E944A
:1020A000F30E292F22952F70243078F49F70223060
:1020B000A8F09923B9F0F8019681907F99F4FE2C4D
:1020C0008F2D6496ECE00C94E82D2A5F2F7022305F
:1020D00068F0C8010E94AE0CEF2CF1CF992311F0EB
:1020E000882369F3805E883050F3F3CF803F38F364
:1020F000815F833070F7E3CF8091D202816080935B
:10210000D202BACF9D1113C09091CC02C9120FC058
:10211000E1100DC08683C8010E94AE0C87E0F80173
:10212000ACECB2E001900D928A95E1F767CFC8015F
:102130000E94030D882309F464CFEE2009F461CFD7
:102140008091D202803288F02091CC023091CD0271
:10215000398728879B868A869091D0029C871D8626
:102160008E87CE0108960E94AE0C87E0F801ACEC99
:10217000B2E001900D928A95E1F70E94540F0E94FF
:10218000430F42CF9091D202292F207FA1F4682DD6
:102190009A8A898AA6017A899E2D0E94100D8CEC5C
:1021A00092E00E94AE0C87E0F50111928A95E9F762
:1021B0000E94430F61CF882309F482CF8091CD0222
:1021C0008D1110C08091CC02C8120CC0E1100AC061
:1021D0009683C8010E94AE0C87E0F50111928A95A2
:1021E000E9F76ECFC8010E94030D882309F409CFD7
:1021F000EE2009F406CF8091D202803208F4B5CFE8
:102200002091CC023091CD023A8329839C828B822B
:102210009091D0029D831E828F83CE010196A3CF21
:10222000483C5105B8F5882309F4EECEFE2CEE208B
:1022300009F4E7CE8091CD028D111EC08091CC02B1
:10224000C8121AC08091D20280FD0DC0982F907FD5
:1022500051F08683903F09F45ECF982F907F905F76
:102260008F70892B57CF87E0F801ACECB2E001907A
:102270000D928A95E1F724CFC8010E94030D8111C8
:1022800074CF8091D20281608093D202C8010E94F3
:10229000AE0C16CF682D9A8A898AA6017A899E2D5E
:1022A0000E94100D87E0F50111928A95E9F7A6CEFC
:1022B000AEE0B0E0EEE5F1E10C94D52D288739874A
:1022C0004A875B876C877D878E87CE0108960E9440
:1022D000CE0F8823B1F06C85662341F028853985BF
:1022E0004A855B857D858E850E941A0D17E0809159
:1022F00092029091930289133DC02E96E3E00C94D4
:10230000F12D87E0FE013896DE01119601900D92C5
:102310008A95E1F78C85882349F32091930230E078
:10232000C9010196877099274091920248171906B2
:1023300099F097E0929FD001939FB00D1124AC5675
:10234000BD4FFE01319601900D929A95E1F7809371
:1023500093020E94210FCACF0E94E30C10929302B5
:102360001092920287E0ECECF2E0DF011D928A9578
:10237000E9F7BCCF819FC00111248C569D4F0E946C
:10238000CE0F882309F4B9CFE09192021E9FF0018D
:102390001124EC56FD4F20813181428153816481AB
:1023A000758186810E941A0D8091920290E00196BB
:1023B00087709927809392029ACF8091F302869535
:1023C0008695869508958091F3028770089590917F
:1023D000F302977081E009F480E0089580911F0373
:1023E000089590911F03892B80931F030895809572
:1023F00090911F03982390931F03089510921F0339
:10240000089590911E03892B80931E030895809553
:1024100090911E03982390931E03089510921E031B
:10242000089508950E94111208959091F402292FA1
:10243000282331F0809589238093F4020E941212A0
:10244000089508950E94211208959091F502292F70
:102450002823281729F0982B9093F5020E94221226
:1024600008959091F502292F282331F08095892332
:102470008093F5020E94221208958091F50288232C
:1024800029F01092F50280E00E9422120895CF9365
:10249000C0911F0380911E03C82B8091F5028823F1
:1024A00031F0C82B0E94ED2881110E943D128C2F23
:1024B000CF910895CF93DF93C091B701D091B80128
:1024C0000E94471288838091B7019091B8010E94C1
:1024D0008A28DF91CF910895CF93DF93C091B50102
:1024E000D091B6010E9447128983C091B501D09165
:1024F000B60140E250E063ED72E0CE010E94592E39
:10250000892B59F080E2FE01A3EDB2E001900D921B
:102510008A95E1F7CE010E949528DF91CF91089529
:102520008091CB01882339F08091D40387FF03C0C9
:102530000E946C1208950E945A12089508950E94F4
:102540009E1208959091D50392FF11C098E0899F43
:1025500090011124622B6093F3020E949D0D8091E3
:10256000F3028695869586950E949F1208950E9493
:102570009D0D08951092F30280E00E949F1208952D
:102580009091F302809589238093F302282F27707E
:1025900069F4891759F09091D50392FF07C0869589
:1025A000869586950E94BF0D0E94BA12089590915B
:1025B000D50392FB222720F9281769F080FB92F9B6
:1025C0009093D5038091D4039091D5030E941F135B
:1025D00082E00E94C01208958091D50382FB882773
:1025E00080F991E089270E94D712089581E00E9426
:1025F000D712089580E00E94D71208956FEF7FEF01
:1026000090E080E00E94BB2E089590E080E00E9460
:10261000872E21E0863E9E4F09F020E0822F08950C
:1026200082E090E00E947F2E089583E090E00E9477
:102630007F2E089584E090E00E94872E0895BC01CB
:1026400084E090E00E94BB2E0895AB01BC018FE0B6
:1026500090E00E94AF2E0895AB01BC0183E190E0B1
:102660000E94AF2E089560E070E0CB010E942C1311
:10267000089560E070E0CB010E9425130E9433139F
:102680000895A8E0B0E0E7E4F3E10C94D62D66EEFF
:102690007EEF90E080E00E94BB2E60E082E090E060
:1026A0000E949D2E81E090E0A0E0B0E080938E0239
:1026B00090938F02A0939002B093910261E083E027
:1026C00090E00E949D2E60E074E184E090E00E9422
:1026D000BB2E60E086E090E00E949D2E60E087E0E7
:1026E00090E00E949D2E40E050E0BA0188E090E02A
:1026F0000E94AF2E60E084E290E00E949D2E60E098
:1027000087E190E00E949D2E60E08CE090E00E94C6
:102710009D2E60E08DE090E00E949D2E19821A822D
:102720001B821C821D821E821F82188648E050E098
:1027300068E170E0CE0101960E948D2E40E050E0ED
:10274000BA0180E290E00E94AF2E0E9439132896D1
:10275000E2E00C94F22D0E9441130895682F8EE060
:1027600090E00E949D2E0895A6E0B0E0EAEBF3E130
:102770000C94D42D0E94112A8C01809120039091F9
:1027800021038017910781F019821A820E94112A71
:10279000682F49815A81792F80E090E00E94B70923
:1027A00010932103009320032696E4E00C94F02D6F
:1027B0000E941D2A60932E0370932F038093300391
:1027C0009093310360932A0370932B0380932C031F
:1027D00090932D030895089508950E94EB13089592
:1027E00008950E94F013089588ED96E10E9439182B
:1027F0000E94EC130E94ED13089581E008950E9459
:10280000FD1308950E94FD130895089508950E94F0
:1028100005140E94061408950E940513811102C038
:102820000E94AB130E941013809332030E941A136C
:102830009093D5038093D4030E94B7250E9415136B
:10284000682F70E090E080E00E94340D60918A0271
:1028500070918B0280918C0290918D020E94730D79
:1028600008950E94082A0E9498170E940C140E9442
:1028700094090E947A230E94F1130895A6E0B0E023
:10288000E4E4F4E10C94CA2D0E94FF1381110AC004
:102890000E94B4130E9408210E949E092696EEE031
:1028A0000C94E62D0E94AE1722E2822E23E0922E97
:1028B000640110E0F601E190F1906F01812F0E9418
:1028C000E2161F5F143009F44EC0E816F90691F3C2
:1028D0008091320381FD0E94EB160E940214682E43
:1028E00010E0812F0E94E2167C01F401A190B190CA
:1028F0004F018A159B0589F1A826BF2400E0CC244E
:10290000C394D12CC5018C219D21892BE9F077241A
:102910007394C7018C219D21892B09F4712C6620A9
:1029200071F009831A830E94112A682F8B839C837C
:1029300049815A81792F81E0972D0E94B709472D4F
:10294000602F812F0E94471C0F5FCC0CDD1C0C30C8
:10295000C9F6F4013297F182E0821F5F143009F664
:102960000E94D81397CFE816F90609F0B1CF90CF9F
:102970001F93CF93DF930E94E715EC01C11580E50B
:10298000D807F0F5C11580E4D80708F09CC0C03E18
:10299000D10520F5CD3CD10508F082C0C83AD1055B
:1029A00078F4C53AD10508F073C0C130D10519F1EA
:1029B000209709F1C430D105F0F4D0E0C0E01BC08D
:1029C000C33CD105D0F7C85AD0E0CC0FDD1FC65F9D
:1029D000DD4F0990D881C02DD4640DC0C11580E2AF
:1029E000D80708F0D1C0C11581E0D80708F05AC057
:1029F000C83ED10510F7CE01DF91CF911F91089508
:102A0000C03682E5D80718F5C03482E5D80708F04B
:102A10006BC0C03282E5D80708F05FC0C11582E5FF
:102A2000D80708F497C02C2F2695269580E2289F7A
:102A3000900111248C2F8370C1E0D0E002C0CC0F34
:102A4000DD1F8A95E2F7C22BD32BDD68D4CFC03AC5
:102A500082E5D80760F4C03882E5D80708F459C089
:102A6000CF71D0E0DC2FCC27C46FD06AC4CFC03C7C
:102A700082E5D80708F462C0C03E82E5D80708F0B6
:102A80009CCFDC2FCC27CC27DF71C06FD06AB3CFAF
:102A9000C55AD0E0C05CDD4FC881D0E0D064ABCF78
:102AA000D065A9CF8D2F0E948916182FCE019927A6
:102AB0000E94E715C12FD0E0DC2FCC27CC27DF7197
:102AC000C82BD92B98CFCE0199270E94E715CC2788
:102AD000DF70C82BD92BD06A8ECFCF71D0E0DC2F1E
:102AE000CC27C16FD06A87CF2C2F269526952770CB
:102AF00080E2289F900111248C2F8370C1E0D0E0E8
:102B000002C0CC0FDD1F8A95E2F7C22BD32BDC6805
:102B100072CF2C2F26952695277080E2289F900152
:102B200011248C2F8370C1E0D0E002C0CC0FDD1FD8
:102B30008A95E2F7C22BD32BDA685DCF8C2F8F7189
:102B40000E948916C82FD0E0DC2FCC27CC27DF715C
:102B5000D06251CF8C2F8F710E94891655E0D69587
:102B6000C7955A95E1F7CF70D0E0DC2FCC27282FFE
:102B700030E084FF05C044E0220F331F4A95E1F79F
:102B8000C22BD32BD06937CF8D2F8F710E9489161E
:102B9000182FCE0199270E94E715C12FD0E0DC2F16
:102BA000CC27CC27DF71C82BD92BD2CF462F74303E
:102BB00030F46C3020F4672F0E94A008089590E054
:102BC00080E008950E94D6150E94B81408958238B6
:102BD0009105B9F1B0F48133910509F47DC048F451
:102BE0008932910509F46DC08A32910509F47BC0E0
:102BF00008958533910509F45FC08933910509F182
:102C00000895833E9105D9F138F4803E910529F16C
:102C1000823E910579F10895863E9105D9F1873E6E
:102C2000910509F43EC0843E910541F52091D503FC
:102C300021FF24C08091D40384FD19C087EE90E069
:102C400008952091D403237009F05AC02091D50330
:102C500023FF14C089E290E008952091D40320FD61
:102C600038C03091D50330FF09C024FF43C090E045
:102C700080E008952091D40322FDF7CF089520919C
:102C8000D40322FD3AC03091D50330FD39C024FF72
:102C9000F5CFEDCF2091D40323FFF0CF24FDE7CF74
:102CA000CDCF2091D40323FD2EC03091D50331FF29
:102CB000EECF84EE90E008952091D40325FFDECF7F
:102CC000C9CF2091D40325FD21C02091D50323FF36
:102CD000D5CF89E390E0D2CF2091D40326FFCECF89
:102CE0008AE290E008952091D40326FFC7CF81E3C4
:102CF00090E0089583EE90E0089582EE90E00895CC
:102D000080EE90E0089586EE90E0089585E390E0EF
:102D100008959091D40392FF10C041E0282F2471B0
:102D2000243009F040E031E0282F2871283009F0E4
:102D300030E0431711F02CE0822793FF10C041E0F0
:102D4000282F2471243109F040E031E0282F287128
:102D5000283109F030E0431711F02CE08227309140
:102D6000D50330FF10C051E0282F2171213009F028
:102D700050E041E0282F2871283009F040E0541736
:102D800011F029E0822731FF10C041E0282F217186
:102D9000213109F040E031E0282F2871283109F075
:102DA00030E0431711F029E0822794FD877E0895D3
:102DB00080E0089508950E94DA16089508950E940B
:102DC000DE160895E82FF0E0EE0FFF1FE252FC4FF1
:102DD000808191810895089580EA8A95F1F7089598
:102DE00000C008950E94EC160895F894E82FE2952B
:102DF000EF70F0E031A1282F2F7081E090E001C04A
:102E0000880F2A95EAF7982F9095932391A392A182
:102E1000892B82A378940895CF93DF9380E30E9457
:102E2000F51681E30E94F51682E30E94F51683E30E
:102E30000E94F516C3E4D2E089918F3F11F00E9401
:102E4000F51682E0CF34D807B9F7DF91CF91089516
:102E5000AF92BF92DF92EF92FF920F931F93CF93A7
:102E6000DF938C01D62EC62FD0E0CE01815B9D4F23
:102E70007C01FC0120812F3F09F44DC0F894E22F22
:102E8000E295EF70F0E031A12F7081E090E001C099
:102E9000880F2A95EAF7932F982B91A392A18095FA
:102EA000892382A378940E94F016E3E4F2E04FE4D1
:102EB00052E021E030E0B12CA12C61916F3FA9F1EB
:102EC000A62FA295AF70B0E090968C9190E06F70B5
:102ED00002C0959587956A95E2F780FD26C0C901E5
:102EE000A82AB92A220F331F4E175F0731F7F701BF
:102EF00080818F3F11F00E94F51661E0A114B104AA
:102F000009F460E08D2D0E94F216CC0FDD1FC00F7A
:102F1000D11FB982A882DF91CF911F910F91FF90AD
:102F2000EF90DF90BF90AF90089590E080E0D8CF11
:102F30000E940C1788E0EEEDF3E0DF01982F1D9260
:102F40009A95E9F7E6EDF3E0DF011D928A95E9F73E
:102F500084E00E94E9170E94DB160895A8E0B0E023
:102F6000E4EBF7E10C94D32D8E010F5F1F4F88E047
:102F7000F80111928A95E9F7F12C6F2DC8010E9492
:102F80002817F394F4E0FF12F8CF48E050E0B801BE
:102F900086ED93E00E94592E21E0009709F420E08D
:102FA000892B41F088E0F801A6EDB3E001900D9285
:102FB0008A95E1F744E06EED73E086ED93E00E94C0
:102FC000EA17182F0E94DF16812F2896E5E00C944F
:102FD000EF2D0895B0E0A0E0E0EFF7E10C94D02DE4
:102FE0006C017B01042FC22F222379F081E08093B2
:102FF00035030E94112A909334038093330380E0B9
:10300000CDB7DEB7E8E00C94EC2DD0913503DD238D
:10301000B1F380913303909134030E94292A0597DC
:1030200070F310E0000F111FA801B601C7010E9444
:10303000592E892B31F0A801B601C7010E94662ED6
:10304000CD2F109235038C2FDBCF0E94A82A0E942F
:1030500031140E94B92A08950E94E0290E94982AFA
:103060000E94F4130E9425180E94C72A0E94071488
:10307000FBCF90936502809364020895EF92FF92D4
:103080000F931F93CF93DF93EB01E82FD1110EC065
:10309000442321F0F0E0EA56F54FE4916E2F7E2FA5
:1030A0008E2FCDB7DEB7E6E00C94EE2D0D2F10E09D
:1030B000282F30E0442329F02A56354FF901249176
:1030C00030E0F6E0CF9FC0011124EFEFF0E0BF0148
:1030D0000E94572DAB018C2F90E0880F991FA5E51A
:1030E000A49FB001A59F700D1124861B970B982FEC
:1030F000990F980FBF01601B710B629FD001639FF6
:10310000B00D729FB00D11248B2F9D9FB001112423
:10311000672F7727EF01C61BD70BBE01629FE00127
:10312000639FD00D729FD00D11247F01E91AF10821
:10313000E09EB001E19E700DF09E700D1124672F8E
:103140007727E61BF70BE29F8001E39F100DF29FAC
:10315000100D1124E12F722F4230510599F048F4DF
:103160004115510569F04130510581F0EB2F8D2F4C
:1031700007C04430510569F080F046305105B1F781
:103180006E2F8FCFE22F7B2F812FFACFE22F7D2F53
:10319000F7CFEB2F822F712FF3CF7B2F822FED2FC5
:1031A000EFCF41E00E943E18089530E020E0869F76
:1031B000212D969F200D311D1124C9010895AC01C8
:1031C0008230910508F408959FEF413E8EE1580743
:1031D00040F49A0195E0369527959A95E1F798E0A5
:1031E000920F61E0E62FE90FFF27FF1F9F01359542
:1031F0002795822F229FF001239FF00DF00D1124BF
:103200004E175F0738F49FEF920F961758F78FEF1E
:10321000860F08952F3FE9F361E0620FF6CF4091EA
:10322000BF015091C00125E038E0429FC001439F9B
:10323000900D529F900D1124875E994C9093C00180
:103240008093BF01890F0895E82F86FDE0952E2F0A
:103250002F7086FD2F5FE695E695E695E670F0E027
:10326000ED5AFD4F9181929F902D212D1124929521
:103270009F702295207F922B2081920F87FD919540
:1032800080E8890F0895E42FF0E0EE0FFF1FEC5F58
:10329000FE4F61A9621B0895322F50E0FA01EE0F34
:1032A000FF1FEC5FFE4F91A9905297FD9195440F3F
:1032B000551FFA01EC5CFE4F2081231B330B290FB5
:1032C000311D97FD3A95620F0895EF920F93972F56
:1032D00023E0029FB0011124759567956E0D792F3B
:1032E0000F91EF9008950F93CF93DF93D72FC82FAF
:1032F00047FD419588E390E0841B910947FD939534
:10330000889FB001899F700D700D1124229FC0010C
:10331000239F900D900D1124860F971F0E94DF1898
:10332000982F990F890F682F600F7D2F8C2FDF91B9
:10333000CF910F9108950F93CF93DF93D72FC82F7D
:103340002115310529F460E857FD1DC060E01BC060
:10335000F90137FF04C0EE27FF27E21BF30BBA0188
:103360006E0F7F1F57FD16C04E1B5F0BCA01E5E0B5
:10337000880F991FEA95E1F70E946B2D862F60E276
:10338000681B37FD6195600F7D2F8C2FDF91CF91EA
:103390000F910895CB0165E0880F991F6A95E1F7B9
:1033A000BF01641B750B0E946B2D862F60E6E8CF72
:1033B0000F931F93522F10E0F801EE0FFF1FEC5FE9
:1033C000FE4FA1A9A052BB0B9D015203F001539FD8
:1033D000F00D1124000F111FD801AC5CBE4F0C91F1
:1033E0000057110B40039001419F300D11242E0F07
:1033F0003F1F37FF02C021583F4F220F232F221FAC
:10340000330B620F1F910F9108954095282F429F13
:10341000412D1124842F0895409520E4429F412D91
:103420001124640F0895EF92FF920F931F930E0DD6
:103430001F2D111DF90137FF03C0F195E195F10929
:1034400024E0EE0FFF1F2A95E1F7EF3FF10519F099
:1034500014F0EFEFF0E09A0157FF03C0319521958A
:10346000310994E0220F331F9A95E1F72E173F0799
:103470000CF4F901E00FF11FEF3FF10519F010F026
:10348000EFEFF0E0E095282F3E2F230F08F42FEF09
:10349000822F1F910F91FF90EF900895EF92FF926E
:1034A0000F939701201B31092F3F310519F010F0C0
:1034B0002FEF30E0322F3095482F430F08F44FEFB5
:1034C000842F620F0F91FF90EF900895EF92FF927B
:1034D0000F939701201B31092F3F310519F010F090
:1034E0002FEF30E02095382F320F08F43FEF832F75
:1034F0000F91FF90EF90089590915803892B80933E
:103500005803089548E050E068E170E086EE93E0EB
:103510000E948D2E1092580308950E94D11808958C
:10352000B0E0A0E0E6E9FAE10C94C92D782E662E11
:10353000862F90E02CE0729E80011124F801EC5F50
:10354000FE4FE80FF91FC081CF3FA9F1B12CA12C8C
:10355000812CD0E09E01220F331FA9014C5C5E4FED
:103560006A01E901CB5CDE4F0A571C4F080F191F97
:103570007501912C88E2582EF701EC5FFE4F808197
:103580008F3F59F078101CC069101AC0F8012081D3
:1035900030E2230F08F42FEF208393944FEFE41AC7
:1035A000F40A5CE09512E8CF83948CE0A80EB11C7D
:1035B000E4E08E12DDCFCDB7DEB7EFE00C94E52D61
:1035C00090E0F6012081FC01EE0FFF1FEC5CFE4F46
:1035D0003081231B330B4881880F991FFC01EC5F5E
:1035E000FE4F81A9481B550B229FB001239F700DF0
:1035F000700D1124449FC001459F900D900D112422
:10360000860F971F0E94DF18893238F6252D382F34
:10361000231B08F420E0F701EA57FC4F213108F0A2
:1036200020E13081320F08F43FEF3083B6CFE6EE71
:10363000F3E085E080838091CE019091CF01A0914D
:10364000D00181839283A3838FE784838FEF858367
:103650000E94821A089580E008950F931F93CF93DC
:10366000DF93C82FD62F8A010E942B1B9CE0C99F95
:10367000B00111246C5F7E4F6D0F711DFB019081B5
:103680009F3F29F0F801E80FF11D90838F5FDF91D4
:10369000CF911F910F910895E0916102F091620224
:1036A00009950895E0915D02F0915E0209950895F3
:1036B0001F93CF93DF93EC01FC01E657FE4F80810F
:1036C0006823B1F00E940F19182F0E940F1920E8EB
:1036D000829FC00111247FE7790F612F8091E90358
:1036E0000E948D1A462F282F672FCE010E94521B51
:1036F000DF91CF911F910895E0915F02F0916002F8
:1037000009950895A8E0B0E0E8E8FBE10C94C92D24
:10371000FC011091E90323E0129F70011124F6943B
:10372000E794F694E7945E2C812E912C8FEF90E035
:10373000B4010E946B2D762E8281882371F040E0C7
:1037400060E080E00E947C1BE6E8F3E080E3DF01BC
:103750001D928A95E9F710925703809156038F5F67
:103760008093560386E8A82E83E0B82E612C8E182D
:103770009F08650100E080915703802B09F06BC022
:103780000E94492E853595400CF065C0F5011083E7
:10379000AE014F5F5F4F662D802F0E942D1B882347
:1037A000C9F0F6012081E981F0E0521608F062C00C
:1037B00030E02E193F092E9DC0012F9D900D3E9D9A
:1037C000900D1124B4010E94572D262F412FCF01B7
:1037D0000E94521B0F5FFCE0CF0ED11C043059F643
:1037E00063942FEFA21AB20A8CE06812C2CF8091C4
:1037F0005603871102C010925603809157038F5FC2
:103800008D3108F441C0109257032EE933E083E074
:1038100042E953E09FEF910FD901E6E8F3E08330EE
:1038200021F464A1161301C094A36C91611720F0D8
:103830009C931C961C931C97319611964E175F070C
:1038400071F781502C5031098111E6CF80E0289624
:10385000EFE00C94E52DD6018C91882309F498CFE4
:10386000811708F095CF90915603971191CF815011
:103870008C938ECF129FC0011124B7010E94572D47
:10388000462F20E060E0A3CF80935703DFCFA8E06E
:10389000B0E0EDE4FCE10C94CE2DC82EB62EA42EA3
:1038A0000E94FD13882309F457C0D12CAA2041F0AF
:1038B000AE014F5F5F4F6B2D8C2D0E942D1BD82EBC
:1038C0000D2D10E080915903800F912F911D0997C4
:1038D0006CF188E090E07C01E01AF10AB801665AC8
:1038E0007C4FA7018AE593E00E94662EB8016E59CD
:1038F0007C4FA70182E693E00E94662EA701440F49
:10390000551FB801660F771F6E587C4F82E793E012
:103910000E94662EB80166597C4FA7018AE693E0A3
:103920000E94662E88E08D198093590310915903E7
:10393000DE01119640E0842F810FD41211C08093D4
:103940005903AA2049F08091E6038C7F803321F44B
:103950006B2D8C2D0E94901A2896EAE00C94EA2D8B
:103960005D91252F30E090E0BC01675A7C4FF90152
:10397000EE0FFF1FEC5CFE4F0081FB010183220F65
:10398000331FF901EC5FFE4F21A9FB012187518B09
:10399000880F991FFC01E75AFC4F128E118E4F5F62
:1039A000CACF81E008950E94D11C089599E0899FB3
:1039B000802D1124980F9C3208F09BE20895B0E00E
:1039C000A0E0E5EEFCE10C94C82D3C012B01FC01CC
:1039D00080810E94D61CC82F192F6091EA0366953A
:1039E0008091EE039091EF030E94D518F82ED0E05D
:1039F000CE01880F991F9C012C5F3E4F6901C117B2
:103A000048F081E01B3208F080E0CDB7DEB7E0E19E
:103A10000C94E42DFE01E657FE4F8081F301918165
:103A2000892379F1F60180A9282F2057330B5901FA
:103A300081A9E82FE052FF0B4F01AA9C9001AB9C9B
:103A4000300D300D1124EE9FC001EF9F900D900DB1
:103A50001124820F931F0E94DF18082F6091E70343
:103A60007091E8038091E903EF2C9401A501F20124
:103A700009950E948D1A462F282F672FCE010E948C
:103A8000521BF2E0CF0ED11C2196B9CF65E679E149
:103A90000E94DF1C0895B0E0A0E0E1E5FDE10C9498
:103AA000CD2D6C015B01FC0180810E94D61CC82FCA
:103AB000192F6091EA0366958091EE039091EF03D0
:103AC0000E94D518982ED0E0CE01880F991F9C0136
:103AD0002C5F3E4F7901C11748F081E01B3208F09E
:103AE00080E0CDB7DEB7EBE00C94E92DFE01E657A0
:103AF000FE4F8081F60191818923C1F0F70121A950
:103B00002052330B40A94057550B6091E703709149
:103B1000E8038091E903092DF50109950E948D1AAA
:103B2000462F282F672FCE010E94521BF2E0EF0E86
:103B3000F11C2196D0CF63E779E10E944B1D0895D7
:103B40006BE979E10E944B1D0895B0E0A0E0EBEA3B
:103B5000FDE10C94D02D7C018B01FC0180810E9441
:103B6000D61CC82FD92E6091EA036695669521E090
:103B7000620F08F46FEF8091EE039091EF030E94C3
:103B8000D518C82ED0E0CD1550F081E09AE29D15F1
:103B900008F480E0CDB7DEB7E8E00C94EC2DFE0130
:103BA000E657FE4F8081F7019181892391F0609162
:103BB000E7037091E8038091E9032C2D4C2FF80165
:103BC00009950E948D1A462F282F672FCE010E943B
:103BD000521B2196D8CF63E479E10E94A51D089578
:103BE0006CE479E10E94A51D0895B0E0A0E0EBEF40
:103BF000FDE10C94CC2D5C016B01FC0180810E94E5
:103C0000D61CC82FF92E6091EA03669566958091BF
:103C1000EE039091EF030E94D518182F80E4810FD6
:103C20000E94241990E8992E980E812F0E94241941
:103C300020E8822E880ED0E0CF1550F081E09AE285
:103C40009F1508F480E0CDB7DEB7ECE00C94E82DCA
:103C5000FE01E657FE4F8081F50191818923A1F095
:103C60006091E7037091E8038091E903E12E0C2F46
:103C7000282D492DF60109950E948D1A462F282FCF
:103C8000672FCE010E94521B2196D6CF68ED79E1B5
:103C90000E94F51D0895B0E0A0E0E1E5FEE10C947E
:103CA000CF2D8C017B01FC0180810E94D61CC82F86
:103CB000B92E2091EA0331E0230F08F42FEF30E012
:103CC00050E040E06FEF7FEF80E090E00E94A12D98
:103CD0006901D0E02C2FCB1550F081E0FAE2FB1502
:103CE00008F480E0CDB7DEB7E9E00C94EB2DFE01DF
:103CF000E657FE4F8081F8019181892311F14091AF
:103D0000F2034150042E000C550B47FF1CC0C601A6
:103D10006091EA0321E0620F08F46FEF0E94D5186A
:103D2000AC016091E7037091E8038091E903F7012A
:103D300009950E948D1A462F282F672FCE010E94C9
:103D4000521B2196C7CFFA01EE50FC4F8189821396
:103D50000AC0FA01EE0FFF1FEE50FC4F818D928DCD
:103D60008C159D05A8F241505109CFCF65E07AE14D
:103D70000E944B1E08956CE07AE10E944B1E08954C
:103D8000AAE0B0E0E6ECFEE10C94C62D8A832B019C
:103D90005E834D83FB0180810E94D61C9B83F09142
:103DA000F203FC83282F30E03A872987C901880F66
:103DB000991FFC01EC5FFE4F6F01FA818F2F90E09D
:103DC0009C012F5F3F4F38872F83EB81F985FE17CA
:103DD00040F081E0EB3208F080E02A96E2E10C94BA
:103DE000E22DE985FA85E657FE4F8081F201918147
:103DF000892301F12090E7033090E8032F81388573
:103E00002E503C4F39013A81398310E029813C81A1
:103E10002317C8F02091E903129F112D1124B1013D
:103E2000812F0E948D1A462F282F672F89859A850A
:103E30000E94521B89859A8501969A87898792E00C
:103E4000C90ED11CC2CFF30181913F01F601A0A898
:103E5000A81ABB0881A8F3018781881A9908AA9C2F
:103E60009001AB9C300D300D1124889CC001899CC1
:103E7000900D900D1124820F931F0E94DF18082FC0
:103E80006091EA0321E0620F08F46FEFF301EE0F97
:103E9000FF1FE25FF340858996890E94D5187C0157
:103EA0009401A501B101812FED81FE8109951B01CE
:103EB000F981FF5FF983182FA9CF2091F20331E038
:103EC000231B08F420E043E15AE1BC01822F0E9449
:103ED000C01E08952091F20331E0231B08F420E076
:103EE0004EE45AE1BC01822F0E94C01E08954EE4A8
:103EF0005AE1BC0180E00E94C01E08952091F203A7
:103F000031E0231B08F420E046E65AE1BC01822F91
:103F10000E94C01E0895B0E0A0E0E1E9FFE10C942A
:103F2000D02D7C01FC0180810E94D61CC82F192F46
:103F30006091E7037091E8038091E9030E948D1A74
:103F4000062FD72EC82ED0E0C11748F081E01B32D3
:103F500008F080E0CDB7DEB7E8E00C94EC2DFE0170
:103F6000E657FE4F8081F7019181892331F02C2D96
:103F7000402F6D2DCE010E94521B2196E5CFCF928E
:103F8000DF92FF920F931F93CF93DF938C01FC017D
:103F900080810E94D61CF92EF801928191112BC0CC
:103FA0006091EA0320E1620F08F46FEF8091EE0365
:103FB0009091EF030E94D51865E070E00E94572DA4
:103FC000892B61F40E940F19FBE28F9FC00111241D
:103FD000F8016181892F90E00E94581B81E0FAE28C
:103FE000FF1508F480E0DF91CF911F910F91FF90B2
:103FF000DF90CF900895C82FD0E0CF2CD12CCC15D6
:10400000DD0564F7F8016181CE010E94581B2196FD
:10401000F6CFB0E0A0E0EFE0F0E20C94D02D8C0100
:10402000FC0180810E94D61CC82FF92ED090E80395
:10403000E090E903D091E7036091EA036695669505
:1040400066958091EE039091EF030E94D5180E942F
:104050002419805887FD8195880F682F2CE0629F76
:10406000612D11246D0F7D2D8E2D0E94D118E62E0D
:10407000D72EC82ED0E0CF1550F081E09AE29F15E0
:1040800008F480E0CDB7DEB7E8E00C94EC2DFE013B
:10409000E657FE4F8081F8019181892331F02C2D64
:1040A0004E2D6D2DCE010E94521B2196E4CFB0E023
:1040B000A0E0EDE5F0E20C94CA2D7C01DC018C91CE
:1040C0000E94D61C682E992EF7018281882361F008
:1040D00040E060E080E00E947C1BE6E8F3E080E3E3
:1040E000DF011D928A95E9F7F7018081811115C0E2
:1040F0008091B7039091B8030E94292A21E0893169
:10410000910508F420E02093B603499730F00E940F
:10411000112A9093B8038093B703B12C00E0A12C2F
:104120008CE0782E9AEA892E05C088E08A1508F47A
:1041300057C000E0802F90E07B9CE00111249E019D
:104140002C5F3E4F6901C80ED91ED601EC91E615D1
:1041500008F43EC0E91508F03BC0A394F0E0E65730
:10416000FE4F2081F7013181232309F431C0CA5762
:10417000DC4FC80FD91F1881212F35E5231B08F408
:1041800020E0682D621B7091E803282D210F08F4B0
:104190002FEF3091E903822F880F820F8E5F282F37
:1041A000239F212D1124822F0E948D1A462FD60184
:1041B0009C91282F672F892F90E00E94521B80919D
:1041C000B603882329F021E0121B08F410E01883BD
:1041D0000F5F0C3009F0AECFB39434E0B312A5CF2B
:1041E00081E09AE2991508F480E0CDB7DEB7EEE001
:1041F0000C94E62D81E008950E94FA200895FC01B8
:10420000808181500E94D61C692F0E94FC20089555
:10421000B0E0A0E0EEE0F1E20C94C62D60918203E4
:104220007091830380918403909185030E94382AC2
:104230006B017C010E941D2A4B015C01809282036C
:1042400090928303A0928403B0928503A0915903B6
:10425000E9E5F3E08A2F90E04FEF5FEF60E070E078
:104260004C195D096E097F09A9131CC0809359037D
:104270008091E603282F2370722E19F0782E769401
:1042800076949091B9019130B9F19923F1F092307F
:1042900009F40BC2933009F411C2CDB7DEB7E2E1E5
:1042A0000C94E22D218D328D2901712C612C441545
:1042B00055056605770520F481509F5F3296D4CF6F
:1042C0002C0D3D1D328F218FF8CF1092BA018092B4
:1042D000EE039092EF03A092F003B092F10389E213
:1042E000E9E5F3E0A2EFB3E001900D928A95E1F7E2
:1042F00081E08093B901D1CF9091BD01791223C0A3
:1043000083702091BE0130E091E08217130609F41A
:1043100090E0892F81708093BC018091EB03909194
:10432000BB01981739F08093BB0140E060E080E06A
:104330000E947C1B83E1871588F0E72DF0E0E450B4
:10434000F14D0C94C02D81E0E5CF8091BC01882314
:1043500059F040E060E080E00E947C1B80E004C0F7
:104360008AEB91E00E948B1F9091BA019F5F90931E
:10437000BA01811191C182E08093B9018091BC01A1
:104380008111B4C1772009F497C10E94D31C8AEB34
:1043900091E00E94FF2081CF8AEB91E00E94EB1D0B
:1043A000E3CF8AEB91E00E94F01DDECF8AEB91E033
:1043B0000E94461DD9CF8AEB91E00E949B1DD4CF6D
:1043C0008AEB91E00E94A01DCFCF8AEB91E00E9482
:1043D000461ECACF8AEB91E00E94BF1FC5CF8AEB71
:1043E00091E00E940920C0CF8091BA010E94D61CA2
:1043F000192F4091EE035091EF036091F0037091FB
:10440000F1038091520390915303A0915403B09112
:10441000550384179507A607B70708F044C00E9404
:104420000F199BE2899FE0011124CD2FDD27FE01AA
:10443000E657FE4F80819091BB018923A1F10E9434
:104440000F1981FF35C000E070E080E0602F0E940E
:104450008D1A462F282F672FCE010E94521B2091C4
:10446000EA0330E1230F08F42FEF60E1822F90E0A0
:104470000E94D518BC0184EF91E00E94572D8091D5
:10448000EE039091EF03A091F003B091F103860F3A
:10449000971FA11DB11D8093520390935303A093C6
:1044A0005403B093550381E01B3208F45DCF56CF1F
:1044B0000E940F19082F0E940F19E0E88E9FC0017B
:1044C00011247FE7790F8091E903C0CF8091BC016F
:1044D000882329F040E060E080E00E947C1B80910E
:1044E000BA010E94D61C292E4091EE035091EF0391
:1044F0006091F0037091F10380914E0390914F030E
:10450000A0915003B091510384179507A607B707F0
:1045100008F07FC06091E7037091E8038091E903A0
:104520000E948D1A662E572E482E06E313E0C4E033
:10453000D1E094E3892E91E0992E6E015E0178011D
:1045400085E0382EF70121917F01F50181915F010E
:1045500090E0222309F463C0242D462D652D0E948E
:10456000521BF6018385242D462D652D90E00E9477
:10457000521BF7018081319780833A94F1E0CF1A82
:10458000D1083110DFCF8D8190E0F8012581222301
:1045900009F450C0242D462D652D0E94521B8E819A
:1045A000242D462D652D90E00E94521B0E940F196C
:1045B000837091E009F090E0F80195830A5F1F4F46
:1045C0002C968C169D0609F0B8CF2091EA0330E1B5
:1045D000230F08F42FEF60E1822F90E00E94D5189E
:1045E000BC0188EB9BE00E94572D8091EE039091D7
:1045F000EF03A091F003B091F103860F971FA11D67
:10460000B11D80934E0390934F03A0935003B0933A
:10461000510381E0FAE2F21508F0A6CE9FCE20E029
:1046200040E060E00E94521BF601838520E040E0FC
:1046300060E09CCF20E040E060E00E94521B8E8151
:1046400020E040E060E0AFCF8AEB91E00E9457208D
:104650008BCE8AEB91E00E94821B86CE8AEB91E0A2
:104660000E94B61E81CE8AEB91E00E94BB1E7CCEDA
:104670008AEB91E00E945D1F77CE8AEB91E00E9469
:104680006A1F72CE8AEB91E00E94771F6DCE8AEB93
:1046900091E00E947E1F68CE772009F4FECD8091C4
:1046A000B901823009F073CE70CE7092BD01837073
:1046B0008093BE010E944C1B83E01BCE8091580367
:1046C00081110E94821A6091EE037091EF03809134
:1046D000F0039091F1030E94382A60317105810541
:1046E000910508F4DACD1092B901D7CD772009F4FD
:1046F000D4CD4BCEE0915B02F0915C020995109213
:10470000F2038FEF9FEF90930C0480930B04909330
:104710000E0480930D049093100480930F049093E3
:1047200012048093110490931404809313049093C3
:1047300016048093150490931804809317049093A3
:104740001A04809319041092590390937303809371
:10475000720390937503809374039093770380930F
:104760007603909379038093780390937B038093EF
:104770007A0390937D0380937C0390937F038093CF
:104780007E03909381038093800381E0809358039C
:1047900048E050E068E170E086EE93E00E946F2E02
:1047A000109258038091E6038C7F11F40E94171B2E
:1047B0000895E6EEF3E0908121E092279083109235
:1047C000B9010E947C1A089581E00E94D9230895BE
:1047D0009091E603937051F0811109C09460909319
:1047E000E6031092B901862F0E947C1A0895843145
:1047F00010F09C64F4CF282F220F220F922BEFCFC2
:1048000061E00E94E8230895682F9091E603969551
:10481000969581E0890F843108F081E00E94E823B9
:10482000089581E00E9404240895682F9091E60382
:10483000969596958FEF890F09F483E10E94E823FE
:10484000089581E00E94152408959091E6039370E5
:1048500061F08093E7036093E803453608F044E68F
:104860004093E903822F0E947C1A0895A6EEB3E0DC
:104870001196EC911197F0E0282F13964C91139715
:1048800012966C91CF0108960E942524089581E02C
:104890000E9436240895E6EEF3E09181282F4381AB
:1048A0006281E92FE850FF0BCF010E942524089573
:1048B00081E00E944B240895E6EEF3E0628120E15E
:1048C000620F08F46FEF9181282F4381892F90E0C8
:1048D0000E942524089581E00E945C240895E6EE5C
:1048E000F3E0628120E1621B08F460E09181282FEF
:1048F0004381892F90E00E942524089581E00E9441
:104900006F240895E6EEF3E0438120E1420F08F4BE
:104910004FEF9181282F6281892F90E00E942524FA
:10492000089581E00E9482240895E6EEF3E0438139
:1049300020E1421B08F440E09181282F6281892FF9
:1049400090E00E942524089581E00E949524089516
:10495000E6EEF3E0248130E1230F08F42FEF248307
:104960000E947C1A089581E00E94A8240895E6EE32
:10497000F3E0248130E1231B08F420E024830E942B
:104980007C1A089581E00E94B72408951092B9031B
:104990000895FC01EE0FFF1FDF01A80FB91FA55EF0
:1049A000BB4F11963C911197361307C03C913413BD
:1049B00004C012963C91321751F031E03093B903A4
:1049C000E80FF91FE55EFB4F618340832283089562
:1049D000FF920F931F93CF93DF93182F062FF42E80
:1049E000D0E0C0E02F2D402F612FCE010E94C924BE
:1049F0002196CB32D105B1F7CDB7DEB7E5E00C9407
:104A0000EF2D8091B903882341F06BE270E08BE1D8
:104A100094E00E946D251092B9030895FA01811166
:104A200001C0FB01099508951F93CF93DF93EC011B
:104A3000FB011581111110C00E94EE118272FE015E
:104A4000E052F847E531F10508F045C0E05FF04D70
:104A50000C94C02D0E94E423812FDF91CF911F91F0
:104A6000089541E254E261E174E20E940E25F4CF20
:104A700041E154E261E274E2F8CF48E554E267E4D0
:104A800074E2F3CF47E454E268E574E2EECF4EE718
:104A900054E26BE674E2E9CF4BE654E26EE774E26F
:104AA000E4CF44EA54E261E974E2DFCF41E954E241
:104AB00064EA74E2DACF42EC54E263EB74E2D5CFFD
:104AC00043EB54E262EC74E2D0CF81E00E94002418
:104AD000C3CF86E0FBCF11E0BFCF249A45B14F7E14
:104AE00055B15061EFB7F8949B01220F331F260F89
:104AF000371F280F391F2817390741F4EFBF8FE5FB
:104B000094E00197F1F700C000000895DC016D9179
:104B1000CD0178E055B9000000C067FF45B9660FC8
:104B2000000000C000C000C045B900C07A9591F7F0
:104B3000E2CF0E94FE12089580E00E94E21681708A
:104B400008950E94AE172FEF86E791E02150804034
:104B50009040E1F700C000000E94AE170E949C2523
:104B6000882321F00E9499250E94782A08950E94A6
:104B7000A1250895CF93DF93EB0186319C4711F572
:104B80000E94EE119D81992399F08A7A91E009F4AF
:104B900090E09093BA03811109C089E20E9498299C
:104BA0000E94901280E0DF91CF91089585E3F6CFC7
:104BB0008091BA03811104C089E20E94AF29F0CF2D
:104BC00085E3FBCF81E0EFCFCF93DF93EC01FB01D7
:104BD0008581882309F4D2C09E01305723323105E4
:104BE00008F0B2C00E941A139093D5038093D403A7
:104BF000FE01E150F047E232F10520F4EB5DF04DAB
:104C00000C94C02D8091D40381608093D40393C011
:104C10008091D50388608093D5038DC08091D403A3
:104C20008260F3CF8091D4038460EFCF8091D4036E
:104C30008860EBCF8091D5038160EDCF8091D50363
:104C40008260E9CF8091D4038061DFCF8091D4036B
:104C50008062DBCF8091D4038064D7CF0E94E30CC5
:104C60008091D4038068D1CF8091D4038C60CDCF64
:104C70008091D5038360CFCF8091D4038E7FC5CF41
:104C80008091D503877FC7CF8091D4038D7FBDCF1F
:104C90008091D4038B7FB9CF8091D403877FB5CF28
:104CA0008091D5038E7FB7CF8091D5038D7FB3CF11
:104CB0008091D4038F7EA9CF8091D4038F7DA5CF1F
:104CC0008091D4038F7BA1CF0E94E30C8091D40309
:104CD0008F779BCF8091D403837F97CF8091D5032B
:104CE0008C7F99CF8091D40382FB992790F921E0A2
:104CF000922790FB82F990FB83F987CF8091D503AF
:104D0000982F909591708E7F892B90FB81F983CF9E
:104D10009091D403892F8F7B96FF806476CF0E9479
:104D2000E30C9091D403892F97FB87F980586DCFBE
:104D300081E00E94AE138091D4039091D5030E942C
:104D40001F130E94E30C80E0DF91CF91089580E073
:104D5000F0CF9091D403892F8F7E94FF806155CF3F
:104D60009091D403892F8E7F90FF81604ECF9091D8
:104D7000D503892F877F93FF88604DCF81E0E4CFF3
:104D8000B0E0A0E0E6ECF6E20C94CF2DE82FF0E0E6
:104D9000EA56F44FB490282F26952695269530E0B4
:104DA000F901EA5CF34F0491877010E0082E02C00D
:104DB000159507950A94E2F701701127F901EA5D4C
:104DC000F34FE490F12C082E02C0F594E7940A9476
:104DD000E2F791E0E922FF24F901EA5EF34FC49182
:104DE000D0E002C0D595C7958A95E2F7C170DD275E
:104DF000C62ED12C0115110549F5E114F10431F04D
:104E000086EE0E94F009C601009771F5B6018B2D60
:104E10000E945A0AC601009779F5E114F104A1F540
:104E20000115110531F081EE0E94300AC60100978C
:104E3000C9F5CD2B31F08CE20E94720AC114D10465
:104E4000C9F5CDB7DEB7E9E00C94EB2D81EE0E94F9
:104E5000F009C601009789F2EFE9FFE03197F1F719
:104E600000C000000197F6CFEFE9FFE03197F1F7BE
:104E700000C000000197C8CFEFE9FFE03197F1F7DC
:104E800000C000000197C7CF86EE0E94300AC6011D
:104E9000009731F2EFE9FFE03197F1F700C0000031
:104EA0000197F6CFEFE9FFE03197F1F700C000007E
:104EB0000197BDCF8FE99FE00197F1F700C0000097
:104EC00091E0C91AD108BACF60E00E94C0260895C7
:104ED000EF92FF920F931F93CF93DF938C01F62EE7
:104EE0008AE0E82EF8018491882309F454C08130C7
:104EF00009F04DC0E8012196FE018491813091F4C2
:104F00002196FE0184910E94720A8E010F5F1F4F4D
:104F10008F2D815038F3EFE9FFE03197F1F700C0B2
:104F20000000F7CF823039F4E8012296FE01849127
:104F30000E94F009EACF833039F4E8012296FE019D
:104F400084910E94300AE1CF8430F9F6E80122967C
:104F5000FE01249190E080E0FE0131962053330B56
:104F60002A30310548F0019780F2EFE9FFE03197F0
:104F7000F1F700C00000F7CFE89EA001E99E500DB8
:104F80001124C901840F951F2491EF01E5CF0E94E0
:104F90006427E801BACFCDB7DEB7E6E00C94EE2D7A
:104FA0000F931F93CF93DF93C42FD22FFC018581E2
:104FB0008823C9F04093BD030E94112A9093BC033B
:104FC0008093BB0380E28C0F883040F4C77081E08F
:104FD00001C0880FCA95EAF70E947B0ADF91CF9142
:104FE0001F910F9108951091BD03141332C0809149
:104FF000BB039091BC030E94292A883C910548F587
:10500000C0E2CD0F1D17B9F080E2810F883040F467
:10501000177081E001C0880F1A95EAF70E94820A92
:10502000C83048F481E09D2F977001C0880F9A9591
:10503000EAF70E947B0A802F0E94720AC83070F63D
:10504000D77081E001C0880FDA95EAF70E94820AE2
:10505000C5CF80E28C0F883008F6C77081E001C0B0
:10506000880FCA95EAF7F2CF0F93DB0188519C476E
:1050700087309105A0F5FC01E95BF04D0C94C02D43
:1050800006E221EE41EE6AE17CE7CD010E94D027E5
:1050900080E00F91089507E225EE45EE6BE17CE795
:1050A000F4CF06E221EE40EE68E17CE7EECF07E2C6
:1050B00025EE44EE69E17CE7E8CF06E221EE42EE20
:1050C0006CE17CE7E2CF07E225EE46EE6DE17CE79E
:1050D000DCCF08E221E045EE6EE17CE7D6CF159605
:1050E0008C91882319F01092BD03D3CF81E0D1CFEA
:1050F0009093C3038093C2030895E091C203F0919B
:10510000C303309729F00190F081E02D09950895AF
:1051100080E00895E091C203F091C303309721F03D
:105120000280F381E02D09950895E091C203F0918A
:10513000C303309739F026E0DC012C930480F5811D
:10514000E02D09950895A3E0B0E0E9EAF8E20C94B7
:10515000D62D2091C0033091C10328173907A1F043
:105160009093C1038093C003E091C203F091C30305
:10517000309751F023E029839B838A830084F18553
:10518000E02DCE01019609952396E2E00C94F22DD4
:10519000A3E0B0E0EEECF8E20C94D62D2091BE0333
:1051A0003091BF0328173907A1F09093BF03809374
:1051B000BE03E091C203F091C303309751F024E0A5
:1051C00029839B838A830084F185E02DCE0101969B
:1051D00009952396E2E00C94F22D2091B7013091CD
:1051E000B8012E5F3F4F8091CB01882379F08091E9
:1051F000D40387FF0BC02091B5013091B6012E5F1B
:105200003F4F9EE180E0915018F4089596E0FACF68
:10521000F90141919F014423B1F38F5FF4CF8823BB
:1052200021F19091CB01992311F19091D40397FF33
:105230001EC0E82FE695E695E695EE31B0F4209194
:10524000B5013091B601E20FF32FF11D228130E05C
:10525000877041E050E002C0440F551F8A95E2F785
:105260002423352381E0232B91F480E008952091BD
:10527000B7013091B801F9013296285F3F4F919103
:10528000981721F0E217F307D1F7EFCF81E00895E7
:105290009C01FC0132969FEF80E04191461751F04E
:1052A0009F3F19F4411101C0982F8F5F8630A9F7F5
:1052B0009F3F09F40895290F311D97FD3A95F90193
:1052C00062830895FC01329608962191261303C04B
:1052D000DF0111971C92E817F907B9F70895E62F37
:1052E000E695E695E695EE3168F4E80FF92FF11DA5
:1052F000677021E030E001C0220F6A95EAF78281F1
:10530000822B82830895E62FE695E695E695EE31A9
:1053100070F4E80FF92FF11D677021E030E001C053
:10532000220F6A95EAF72095828128232283089527
:10533000682F8091CB01882359F08091D40387FF97
:1053400007C08091B5019091B6010E946F29089520
:105350008091B7019091B8010E9448290895682F63
:105360008091CB01882359F08091D40387FF07C037
:105370008091B5019091B6010E9483290895809192
:10538000B7019091B8010E94622908958091CB01E4
:10539000882379F08091D40387FF0BC0E091B50199
:1053A000F091B60132968EE1DF011D928A95E9F700
:1053B0000895E091B701F091B801329686E0F4CFFC
:1053C00008951F921FB61F9211248F939F93AF933E
:1053D000BF938091C403811113C080919C0490916C
:1053E0009D04A0919E04B0919F044196A11DB11D02
:1053F00080939C0490939D04A0939E04B0939F047B
:10540000BF91AF919F918F911F901FBE1F901895D4
:1054100082E084BD93E095BD9AEF97BD80936E00C6
:1054200008952FB7F89480919C0490919D04A091C9
:105430009E04B0919F042FBF08952FB7F8946091F8
:105440009C0470919D0480919E0490919F042FBFB5
:1054500008959C014FB7F89480919C0490919D040D
:10546000A0919E04B0919F044FBF821B930B08959F
:10547000CF92DF92EF92FF922FB7F894C0909C04E6
:10548000D0909D04E0909E04F0909F042FBFA70150
:105490009601261B370B480B590BCA01B901FF9027
:1054A000EF90DF90CF90089578941F921FB61F92CF
:1054B00011248F939F93AF93BF9380919C049091FD
:1054C0009D04A0919E04B0919F040196A11DB11D61
:1054D00080939C0490939D04A0939E04B0939F049A
:1054E000BF91AF919F918F911F901FBE1F901895F4
:1054F00088E198E00FB6F894A895809360000FBEFD
:1055000090936000A895F894D8E0CEEF28E3299313
:1055100020E0299314BEFFCF089588E198E00FB6EC
:10552000F894A895809360000FBE90936000FFCF21
:105530000E94112A9093C6038093C50380E890E0EF
:105540000FB6F89480936100909361000FBE0895A8
:105550000E943C2D539A80E0815019F4539878941E
:105560000895A895EFE9FFE03197F1F700C000003A
:10557000F3CF0E94522B0E9478282FEF80E792E011
:10558000215080409040E1F700C0000008950E9443
:105590004C2C8091CD04882329F08091AB0484FDAC
:1055A0000E943E1408958091D3030895FF920F93B3
:1055B0001F93CF93DF93D82F8B01F42EC5E0D1300A
:1055C00039F0D33071F0CDB7DEB7E5E00C94EF2DB4
:1055D0008091AB0484FF0EC06F2DC8010E94422C45
:1055E000F2CF8091E40484FF05C06F2DC8010E94B2
:1055F000472CE9CF0E944C2C8FE19EE40197F1F7F4
:1056000000C00000C150D9F6DECFB0E0A0E0EBE072
:10561000FBE20C94D02DE82E8B01EA016A0183E0B5
:10562000D694C7948A95E1F7F12CFC141D0468F018
:10563000C77031F04C2F50E0B8018E2D0E94D62A51
:10564000CDB7DEB7E8E00C94EC2D48E050E0B801AF
:105650008E2D0E94D62A085F1F4FF394E6CF43E0B9
:1056600050E0BC0183E00E94052B089540E250E029
:10567000BC0183E00E94052B0895CF93DF93EC01DA
:1056800048E050E0BC0181E00E94052B88E0FE016B
:10569000AAECB3E001900D928A95E1F7DF91CF91EA
:1056A0000895089581EC91E00895FC018081807651
:1056B000803241F481818330A9F130F48130F1F0FE
:1056C000823041F180E008958A3079F18B3089F1A0
:1056D0008930C1F7828193818115924069F4848178
:1056E0009581892B49F481E08093C9038681978154
:1056F0009093C8038093C7038FEF089584819581A9
:10570000892B01F78AEC93E09093C9048093C80435
:1057100088E0089582ED93E09093C9048093C804D3
:1057200081E008958BEC91E0F7CF83818093D203E1
:10573000C9CF84819581892B29F682818093CB0101
:10574000C1CFFC018091C7039091C803892B61F000
:105750008091C903813041F490819093D3031092DA
:10576000C8031092C70308958FEF08950895FC01B0
:105770009381933051F130F49130B9F09230E9F0E7
:1057800080E008959132D9F19232D1F784819581E8
:10579000009709F446C0019799F783EC9CE0909339
:1057A000C9048093C8048DE6089581E89CE0909335
:1057B000C9048093C80482E1089586E49CE0909334
:1057C000C9048093C8048BE308958281813079F005
:1057D000882329F08230A1F683E99CE00AC08FEB90
:1057E0009CE09093C9048093C80484E0089589EAFA
:1057F0009CE09093C9048093C80484E10895848157
:105800009581009731F0019709F0BACF81E79CE0CC
:1058100002C088E59CE09093C9048093C80489E0A5
:10582000089580E39DE09093C9048093C80484E4C4
:1058300008951F93CF93DF93E82F792F162FEA0156
:10584000888184FF1CC0298188E828272983CE010C
:105850000296DC012E2F372F512F5E0FF901219177
:105860002D939F01452F4E1B1416C4F3612F0E94E8
:10587000EE061C5F1883DF91CF911F9108958AE592
:105880008883E5CF4BEA54E00E94192C089544EE3A
:1058900054E00E94192C0895CF93DF936091CA04BD
:1058A000635067FD12C08091C604CCE0D0E0C81BF5
:1058B000D109C253DB4F8091C504803108F054C038
:1058C000CE010E94B62B1092CA048091CD0184FFB4
:1058D0003EC08091CC018F3FD1F1C82F893008F0B4
:1058E000C8E0982F9C1B9093CC019091A00428E8CD
:1058F00092279093A0048823E9F08091C8049091A6
:10590000C9042091C40426FFAEC0FC012C2FA1EADB
:10591000B4E034913D9331962150D9F79C012F5F2B
:105920003F4F8FEF8C0F820F932F911D9093C904DF
:105930008093C8046C2F81EA94E00E94EE06CC5F4D
:10594000CC3019F08FEF8093CC01C093CD0184E16E
:1059500099B19C7031F48150D9F71092CB04109218
:10596000C304DF91CF9108958D3209F069C068308A
:1059700009F0A9CF83EC8093A0048AE58093CD0140
:105980001092C4048881807671F0CE010E94552B5C
:105990008F3FC1F4988197FD8E8190E89093C40465
:1059A0008093CC0190CF2A811092A9049981911102
:1059B00011C01092AA0429EA34E082E03093C904AD
:1059C0002093C8049F819111EBCF9E81981740F7D7
:1059D000892FE6CF953029F42093CB0429EA34E0CF
:1059E000EDCF963099F49B81913021F4CE010E9445
:1059F000B72B08C09230D1F39330C1F39132B1F399
:105A00009232A1F390E49093C404C2CF983089F00D
:105A1000993019F42093CD04E1CF9A3071F09B3086
:105A2000E9F69BE49093AC049093E5049093B8045A
:105A3000D5CF2DEC34E081E0C1CF29EA34E0FBCFB3
:105A40008091C40487FF3FCFCE010E94A12B8F3FDE
:105A500021F48EE18093CD0136CF882309F433CF32
:105A60001092CC0130CFDC012C2FE1EAF4E03D9123
:105A700031932150E1F752CFCF93DF93E9E6F0E085
:105A8000808188608083E99ACBEAD4E08BE48983C3
:105A9000A4EEB4E011968C931197E7EBF4E08183C8
:105AA0008AE588838C938083DF91CF910895AA1B28
:105AB000BB1B51E107C0AA1FBB1FA617B70710F0F9
:105AC000A61BB70B881F991F5A95A9F7809590952B
:105AD000BC01CD01089597FB072E16F4009407D062
